{
  "contractName": "Procurement",
  "abi": [
    {
      "constant": false,
      "inputs": [
        {
          "internalType": "uint256",
          "name": "_deadline",
          "type": "uint256"
        },
        {
          "internalType": "string",
          "name": "_name",
          "type": "string"
        },
        {
          "internalType": "uint256",
          "name": "_amount",
          "type": "uint256"
        }
      ],
      "name": "createTender",
      "outputs": [
        {
          "internalType": "uint256",
          "name": "",
          "type": "uint256"
        }
      ],
      "payable": false,
      "stateMutability": "nonpayable",
      "type": "function"
    },
    {
      "constant": true,
      "inputs": [
        {
          "internalType": "uint256",
          "name": "_id",
          "type": "uint256"
        }
      ],
      "name": "getTender",
      "outputs": [
        {
          "internalType": "address",
          "name": "",
          "type": "address"
        },
        {
          "internalType": "uint256",
          "name": "",
          "type": "uint256"
        },
        {
          "internalType": "uint256",
          "name": "",
          "type": "uint256"
        },
        {
          "internalType": "uint256",
          "name": "",
          "type": "uint256"
        },
        {
          "internalType": "string",
          "name": "",
          "type": "string"
        }
      ],
      "payable": false,
      "stateMutability": "view",
      "type": "function"
    },
    {
      "constant": false,
      "inputs": [
        {
          "internalType": "uint256",
          "name": "_tenderid",
          "type": "uint256"
        },
        {
          "internalType": "uint256",
          "name": "_amount",
          "type": "uint256"
        }
      ],
      "name": "createBid",
      "outputs": [
        {
          "internalType": "uint256",
          "name": "",
          "type": "uint256"
        }
      ],
      "payable": false,
      "stateMutability": "nonpayable",
      "type": "function"
    },
    {
      "constant": true,
      "inputs": [
        {
          "internalType": "uint256",
          "name": "_id",
          "type": "uint256"
        }
      ],
      "name": "getBid",
      "outputs": [
        {
          "internalType": "uint256",
          "name": "",
          "type": "uint256"
        },
        {
          "internalType": "uint256",
          "name": "",
          "type": "uint256"
        },
        {
          "internalType": "address",
          "name": "",
          "type": "address"
        }
      ],
      "payable": false,
      "stateMutability": "view",
      "type": "function"
    }
  ],
  "bytecode": "0x608060405260006002556000600555600060065534801561001f57600080fd5b506108138061002f6000396000f3fe608060405234801561001057600080fd5b506004361061004c5760003560e01c80630585c25e146100515780633c889e6f14610140578063b7751c71146101bc578063ee7a723114610208575b600080fd5b61007d6004803603602081101561006757600080fd5b81019080803590602001909291905050506102eb565b604051808673ffffffffffffffffffffffffffffffffffffffff1673ffffffffffffffffffffffffffffffffffffffff16815260200185815260200184815260200183815260200180602001828103825283818151815260200191508051906020019080838360005b838110156101015780820151818401526020810190506100e6565b50505050905090810190601f16801561012e5780820380516001836020036101000a031916815260200191505b50965050505050505060405180910390f35b61016c6004803603602081101561015657600080fd5b810190808035906020019092919050505061042f565b604051808481526020018381526020018273ffffffffffffffffffffffffffffffffffffffff1673ffffffffffffffffffffffffffffffffffffffff168152602001935050505060405180910390f35b6101f2600480360360408110156101d257600080fd5b8101908080359060200190929190803590602001909291905050506104a6565b6040518082815260200191505060405180910390f35b6102d56004803603606081101561021e57600080fd5b81019080803590602001909291908035906020019064010000000081111561024557600080fd5b82018360208201111561025757600080fd5b8035906020019184600183028401116401000000008311171561027957600080fd5b91908080601f016020809104026020016040519081016040528093929190818152602001838380828437600081840152601f19601f820116905080830192505050505050509192919290803590602001909291905050506105de565b6040518082815260200191505060405180910390f35b600080600080606060008087815260200190815260200160002060000160009054906101000a900473ffffffffffffffffffffffffffffffffffffffff1660008088815260200190815260200160002060010154600080898152602001908152602001600020600401546000808a8152602001908152602001600020600301546000808b8152602001908152602001600020600201808054600181600116156101000203166002900480601f0160208091040260200160405190810160405280929190818152602001828054600181600116156101000203166002900480156104155780601f106103ea57610100808354040283529160200191610415565b820191906000526020600020905b8154815290600101906020018083116103f857829003601f168201915b505050505090509450945094509450945091939590929450565b6000806000600160008581526020019081526020016000206001015460016000868152602001908152602001600020600201546001600087815260200190815260200160002060000160009054906101000a900473ffffffffffffffffffffffffffffffffffffffff169250925092509193909250565b600060066000815480929190600101919050555033600360006101000a81548173ffffffffffffffffffffffffffffffffffffffff021916908373ffffffffffffffffffffffffffffffffffffffff1602179055506040518060800160405280600360009054906101000a900473ffffffffffffffffffffffffffffffffffffffff1673ffffffffffffffffffffffffffffffffffffffff16815260200184815260200160065481526020018381525060016000600654815260200190815260200160002060008201518160000160006101000a81548173ffffffffffffffffffffffffffffffffffffffff021916908373ffffffffffffffffffffffffffffffffffffffff160217905550602082015181600101556040820151816002015560608201518160030155905050600654905092915050565b600060056000815480929190600101919050555033600460006101000a81548173ffffffffffffffffffffffffffffffffffffffff021916908373ffffffffffffffffffffffffffffffffffffffff1602179055506040518060a00160405280600460009054906101000a900473ffffffffffffffffffffffffffffffffffffffff1673ffffffffffffffffffffffffffffffffffffffff168152602001858152602001848152602001600554815260200183815250600080600554815260200190815260200160002060008201518160000160006101000a81548173ffffffffffffffffffffffffffffffffffffffff021916908373ffffffffffffffffffffffffffffffffffffffff160217905550602082015181600101556040820151816002019080519060200190610715929190610739565b50606082015181600301556080820151816004015590505060055490509392505050565b828054600181600116156101000203166002900490600052602060002090601f016020900481019282601f1061077a57805160ff19168380011785556107a8565b828001600101855582156107a8579182015b828111156107a757825182559160200191906001019061078c565b5b5090506107b591906107b9565b5090565b6107db91905b808211156107d75760008160009055506001016107bf565b5090565b9056fea265627a7a72315820108a57f3ea32e702048601ff66c252a6324845e7ef0e29146521f39c6ee2100a64736f6c63430005100032",
  "source": "pragma solidity >=0.4.21 <0.7.0;\n\ncontract Procurement{\n    struct Bid{\n        address owner;\n        uint tenderid; \n        uint id;\n        uint amount;\n        \n         \n    }\n    \n\n    struct Tender {\n        address manager;\n        uint deadline;\n        string name;\n        uint id;\n        uint amount;\n\n    }\n    \n    \n    mapping(uint => Tender) tenders;\n    mapping(uint => Bid) bids;\n\n    \n    \n    uint256 latestId = 0;\n    address owner;\n    address manager;\n\n    uint latestTenderId = 0;\n    uint latestBidId = 0;\n  \n    function createTender(uint _deadline, string memory _name, uint _amount) public returns(uint) {\n        latestTenderId++;\n        manager = msg.sender;\n\n        tenders[latestTenderId] = Tender(manager, _deadline, _name, latestTenderId, _amount);\n\n        return latestTenderId;\n    }\n    function getTender(uint _id)public view returns(address, uint, uint, uint, string memory) {\n       return( \n           tenders[_id].manager,\n           tenders[_id].deadline,\n           tenders[_id].amount,\n           tenders[_id].id,\n           tenders[_id].name\n           );\n        \n\n\n    }\n    function createBid(uint _tenderid, uint _amount)public returns(uint) {\n        latestBidId++;\n        owner = msg.sender;\n        \n        bids[latestBidId] = Bid(owner, _tenderid, latestBidId, _amount);\n\n        return latestBidId;\n    }\n    function getBid(uint _id)public view returns(uint, uint, address) {\n       return( \n           bids[_id].tenderid,\n           bids[_id].id,\n           bids[_id].owner\n           );\n        \n\n\n    }\n        \n        \n\n    }\n\n",
  "sourcePath": "C:/Users/User/Desktop/projects/procApp/contracts/Procurement.sol",
  "compiler": {
    "name": "solc",
    "version": "0.5.16+commit.9c3226ce.Emscripten.clang"
  },
  "schemaVersion": "3.3.2",
  "updatedAt": "2020-11-20T17:55:36.445Z",
  "devdoc": {
    "methods": {}
  },
  "userdoc": {
    "methods": {}
  }
}