{
  "contractName": "Procurement",
  "abi": [
    {
      "constant": false,
      "inputs": [
        {
          "internalType": "bytes32",
          "name": "_name",
          "type": "bytes32"
        }
      ],
      "name": "createTender",
      "outputs": [
        {
          "internalType": "uint256",
          "name": "",
          "type": "uint256"
        }
      ],
      "payable": false,
      "stateMutability": "nonpayable",
      "type": "function"
    },
    {
      "constant": true,
      "inputs": [
        {
          "internalType": "uint256",
          "name": "_id",
          "type": "uint256"
        }
      ],
      "name": "getTender",
      "outputs": [
        {
          "internalType": "address",
          "name": "",
          "type": "address"
        },
        {
          "internalType": "uint256",
          "name": "",
          "type": "uint256"
        },
        {
          "internalType": "bytes32",
          "name": "",
          "type": "bytes32"
        }
      ],
      "payable": false,
      "stateMutability": "view",
      "type": "function"
    },
    {
      "constant": false,
      "inputs": [
        {
          "internalType": "uint256",
          "name": "_tenderid",
          "type": "uint256"
        },
        {
          "internalType": "uint256",
          "name": "_amount",
          "type": "uint256"
        }
      ],
      "name": "createBid",
      "outputs": [
        {
          "internalType": "uint256",
          "name": "",
          "type": "uint256"
        }
      ],
      "payable": false,
      "stateMutability": "nonpayable",
      "type": "function"
    },
    {
      "constant": true,
      "inputs": [
        {
          "internalType": "uint256",
          "name": "_id",
          "type": "uint256"
        }
      ],
      "name": "getBid",
      "outputs": [
        {
          "internalType": "uint256",
          "name": "",
          "type": "uint256"
        },
        {
          "internalType": "uint256",
          "name": "",
          "type": "uint256"
        },
        {
          "internalType": "address",
          "name": "",
          "type": "address"
        }
      ],
      "payable": false,
      "stateMutability": "view",
      "type": "function"
    }
  ],
  "bytecode": "0x608060405260006002556000600555600060065534801561001f57600080fd5b506105558061002f6000396000f3fe608060405234801561001057600080fd5b506004361061004c5760003560e01c80630585c25e146100515780633c889e6f146100cd578063b7751c7114610149578063bf82d15914610195575b600080fd5b61007d6004803603602081101561006757600080fd5b81019080803590602001909291905050506101d7565b604051808473ffffffffffffffffffffffffffffffffffffffff1673ffffffffffffffffffffffffffffffffffffffff168152602001838152602001828152602001935050505060405180910390f35b6100f9600480360360208110156100e357600080fd5b810190808035906020019092919050505061024b565b604051808481526020018381526020018273ffffffffffffffffffffffffffffffffffffffff1673ffffffffffffffffffffffffffffffffffffffff168152602001935050505060405180910390f35b61017f6004803603604081101561015f57600080fd5b8101908080359060200190929190803590602001909291905050506102c2565b6040518082815260200191505060405180910390f35b6101c1600480360360208110156101ab57600080fd5b81019080803590602001909291905050506103fa565b6040518082815260200191505060405180910390f35b600080600080600085815260200190815260200160002060000160009054906101000a900473ffffffffffffffffffffffffffffffffffffffff1660008086815260200190815260200160002060010154600080878152602001908152602001600020600201549250925092509193909250565b6000806000600160008581526020019081526020016000206001015460016000868152602001908152602001600020600201546001600087815260200190815260200160002060000160009054906101000a900473ffffffffffffffffffffffffffffffffffffffff169250925092509193909250565b600060066000815480929190600101919050555033600360006101000a81548173ffffffffffffffffffffffffffffffffffffffff021916908373ffffffffffffffffffffffffffffffffffffffff1602179055506040518060800160405280600360009054906101000a900473ffffffffffffffffffffffffffffffffffffffff1673ffffffffffffffffffffffffffffffffffffffff16815260200184815260200160065481526020018381525060016000600654815260200190815260200160002060008201518160000160006101000a81548173ffffffffffffffffffffffffffffffffffffffff021916908373ffffffffffffffffffffffffffffffffffffffff160217905550602082015181600101556040820151816002015560608201518160030155905050600654905092915050565b600060056000815480929190600101919050555033600460006101000a81548173ffffffffffffffffffffffffffffffffffffffff021916908373ffffffffffffffffffffffffffffffffffffffff1602179055506040518060600160405280600460009054906101000a900473ffffffffffffffffffffffffffffffffffffffff1673ffffffffffffffffffffffffffffffffffffffff168152602001600554815260200183815250600080600554815260200190815260200160002060008201518160000160006101000a81548173ffffffffffffffffffffffffffffffffffffffff021916908373ffffffffffffffffffffffffffffffffffffffff1602179055506020820151816001015560408201518160020155905050600554905091905056fea265627a7a723158208701c8426fa31355ec98dc98850b9c3ba0d47c1d007b4322c0566e79477cdb6c64736f6c63430005100032",
  "source": "pragma solidity >=0.4.21 <0.7.0;\n\ncontract Procurement{\n    struct Bid{\n        address owner;\n        uint tenderid; \n        uint id;\n        uint amount;\n        \n         \n    }\n    \n\n    struct Tender {\n        address manager;\n        uint id;\n        bytes32 name;\n\n    }\n    \n    \n    mapping(uint => Tender) tenders;\n    mapping(uint => Bid) bids;\n\n    \n    \n    uint256 latestId = 0;\n    address owner;\n    address manager;\n\n    uint latestTenderId = 0;\n    uint latestBidId = 0;\n  \n    function createTender(bytes32 _name) public returns(uint) {\n        latestTenderId++;\n        manager = msg.sender;\n\n        tenders[latestTenderId] = Tender(manager, latestTenderId, _name);\n\n        return latestTenderId;\n    }\n    function getTender(uint _id)public view returns(address, uint, bytes32) {\n       return( \n           tenders[_id].manager,\n           tenders[_id].id,\n           tenders[_id].name\n           );\n        \n\n\n    }\n    function createBid(uint _tenderid, uint _amount)public returns(uint) {\n        latestBidId++;\n        owner = msg.sender;\n        \n        bids[latestBidId] = Bid(owner, _tenderid, latestBidId, _amount);\n\n        return latestBidId;\n    }\n    function getBid(uint _id)public view returns(uint, uint, address) {\n       return( \n           bids[_id].tenderid,\n           bids[_id].id,\n           bids[_id].owner\n           );\n        \n\n\n    }\n        \n        \n\n    }\n\n",
  "sourcePath": "C:/Users/User/Desktop/projects/procApp/contracts/Procurement.sol",
  "compiler": {
    "name": "solc",
    "version": "0.5.16+commit.9c3226ce.Emscripten.clang"
  },
  "schemaVersion": "3.3.2",
  "updatedAt": "2020-11-19T19:05:27.376Z",
  "devdoc": {
    "methods": {}
  },
  "userdoc": {
    "methods": {}
  }
}