{
  "contractName": "Procurement",
  "abi": [
    {
      "constant": false,
      "inputs": [
        {
          "internalType": "bytes32",
          "name": "_name",
          "type": "bytes32"
        }
      ],
      "name": "createTender",
      "outputs": [
        {
          "internalType": "uint256",
          "name": "",
          "type": "uint256"
        }
      ],
      "payable": false,
      "stateMutability": "nonpayable",
      "type": "function"
    },
    {
      "constant": true,
      "inputs": [
        {
          "internalType": "uint256",
          "name": "_id",
          "type": "uint256"
        }
      ],
      "name": "getTender",
      "outputs": [
        {
          "internalType": "address",
          "name": "",
          "type": "address"
        },
        {
          "internalType": "uint256",
          "name": "",
          "type": "uint256"
        },
        {
          "internalType": "bytes32",
          "name": "",
          "type": "bytes32"
        }
      ],
      "payable": false,
      "stateMutability": "view",
      "type": "function"
    },
    {
      "constant": true,
      "inputs": [],
      "name": "getBid",
      "outputs": [
        {
          "internalType": "address",
          "name": "",
          "type": "address"
        },
        {
          "internalType": "uint256",
          "name": "",
          "type": "uint256"
        }
      ],
      "payable": false,
      "stateMutability": "view",
      "type": "function"
    },
    {
      "constant": false,
      "inputs": [
        {
          "internalType": "uint256",
          "name": "_amount",
          "type": "uint256"
        },
        {
          "internalType": "bytes32",
          "name": "_email",
          "type": "bytes32"
        },
        {
          "internalType": "string",
          "name": "_desc",
          "type": "string"
        }
      ],
      "name": "setBid",
      "outputs": [],
      "payable": false,
      "stateMutability": "nonpayable",
      "type": "function"
    }
  ],
  "bytecode": "0x60806040526000600655600060075534801561001a57600080fd5b5061060b8061002a6000396000f3fe608060405234801561001057600080fd5b506004361061004c5760003560e01c80630585c25e14610051578063099a019d146100cd578063b104436d1461011e578063bf82d159146101ed575b600080fd5b61007d6004803603602081101561006757600080fd5b810190808035906020019092919050505061022f565b604051808473ffffffffffffffffffffffffffffffffffffffff1673ffffffffffffffffffffffffffffffffffffffff168152602001838152602001828152602001935050505060405180910390f35b6100d56102a6565b604051808373ffffffffffffffffffffffffffffffffffffffff1673ffffffffffffffffffffffffffffffffffffffff1681526020018281526020019250505060405180910390f35b6101eb6004803603606081101561013457600080fd5b8101908080359060200190929190803590602001909291908035906020019064010000000081111561016557600080fd5b82018360208201111561017757600080fd5b8035906020019184600183028401116401000000008311171561019957600080fd5b91908080601f016020809104026020016040519081016040528093929190818152602001838380828437600081840152601f19601f8201169050808301925050505050505091929192905050506102d9565b005b6102196004803603602081101561020357600080fd5b81019080803590602001909291905050506103c9565b6040518082815260200191505060405180910390f35b60008060006005600085815260200190815260200160002060000160009054906101000a900473ffffffffffffffffffffffffffffffffffffffff16600560008681526020019081526020016000206001015460056000878152602001908152602001600020600201549250925092509193909250565b6000806000809054906101000a900473ffffffffffffffffffffffffffffffffffffffff16600480549050915091509091565b6102e16104f0565b60405180608001604052803373ffffffffffffffffffffffffffffffffffffffff1681526020018581526020018481526020018381525090506004819080600181540180825580915050906001820390600052602060002090600402016000909192909190915060008201518160000160006101000a81548173ffffffffffffffffffffffffffffffffffffffff021916908373ffffffffffffffffffffffffffffffffffffffff160217905550602082015181600101556040820151816002015560608201518160030190805190602001906103bf929190610531565b5050505050505050565b600060076000815480929190600101919050555033600160006101000a81548173ffffffffffffffffffffffffffffffffffffffff021916908373ffffffffffffffffffffffffffffffffffffffff1602179055506040518060600160405280600160009054906101000a900473ffffffffffffffffffffffffffffffffffffffff1673ffffffffffffffffffffffffffffffffffffffff16815260200160075481526020018381525060056000600754815260200190815260200160002060008201518160000160006101000a81548173ffffffffffffffffffffffffffffffffffffffff021916908373ffffffffffffffffffffffffffffffffffffffff16021790555060208201518160010155604082015181600201559050506007549050919050565b6040518060800160405280600073ffffffffffffffffffffffffffffffffffffffff1681526020016000815260200160008019168152602001606081525090565b828054600181600116156101000203166002900490600052602060002090601f016020900481019282601f1061057257805160ff19168380011785556105a0565b828001600101855582156105a0579182015b8281111561059f578251825591602001919060010190610584565b5b5090506105ad91906105b1565b5090565b6105d391905b808211156105cf5760008160009055506001016105b7565b5090565b9056fea265627a7a72315820b828596009cbbb2a5f3eb2d2d4078c0715c3742ceda443d2b1734c7160fb73cc64736f6c63430005100032",
  "source": "pragma solidity^0.5.16;\r\n\r\ncontract Procurement{\r\n    address owner;\r\n    address manager;\r\n    uint256 tenderAdderess;\r\n    uint256 tenderId;\r\n\r\n    \r\n    struct Bid{\r\n        address owner;\r\n        uint amount;\r\n        bytes32 email;\r\n        string desc; \r\n    }\r\n    Bid[] private bids;\r\n\r\n    struct Tender {\r\n        address manager;\r\n        uint id;\r\n        bytes32 name;\r\n\r\n    }\r\n    \r\n    \r\n    mapping(uint => Tender) tenders;\r\n\r\n    \r\n    \r\n    uint256 latestId = 0;\r\n\r\n    uint latestTenderId = 0;\r\n  \r\n    function createTender(bytes32 _name) public returns(uint) {\r\n        latestTenderId++;\r\n        manager = msg.sender;\r\n\r\n        tenders[latestTenderId] = Tender(manager, latestTenderId, _name);\r\n\r\n        return latestTenderId;\r\n    }\r\n    function getTender(uint _id)public view returns(address, uint, bytes32) {\r\n       return( \r\n           tenders[_id].manager,\r\n           tenders[_id].id,\r\n           tenders[_id].name\r\n           );\r\n        \r\n\r\n\r\n    }\r\n    function getBid()public view returns(address, uint) {\r\n        return (\r\n            owner,\r\n            bids.length\r\n        );\r\n    }\r\n    function setBid(uint _amount, bytes32 _email, string memory _desc) public {\r\n        Bid memory newBid = Bid({\r\n            owner: msg.sender,\r\n            amount: _amount,\r\n            email: _email,\r\n            desc: _desc\r\n        });\r\n        bids.push(newBid);\r\n        \r\n        \r\n\r\n    }\r\n}\r\n",
  "sourcePath": "C:/Users/User/Desktop/projects/procApp/contracts/Procurement.sol",
  "compiler": {
    "name": "solc",
    "version": "0.5.16+commit.9c3226ce.Emscripten.clang"
  },
  "schemaVersion": "3.3.2",
  "updatedAt": "2020-11-18T16:25:33.309Z",
  "networkType": "ethereum",
  "devdoc": {
    "methods": {}
  },
  "userdoc": {
    "methods": {}
  }
}